{
  "contractName": "Staking",
  "abi": [
    {
      "constant": true,
      "inputs": [],
      "name": "total_amount_staked",
      "outputs": [
        {
          "name": "",
          "type": "uint256"
        }
      ],
      "payable": false,
      "stateMutability": "view",
      "type": "function"
    },
    {
      "constant": true,
      "inputs": [],
      "name": "amount_staked_between_stakers",
      "outputs": [
        {
          "name": "",
          "type": "uint256"
        }
      ],
      "payable": false,
      "stateMutability": "view",
      "type": "function"
    },
    {
      "constant": true,
      "inputs": [
        {
          "name": "",
          "type": "address"
        }
      ],
      "name": "DepositerInfo",
      "outputs": [
        {
          "name": "amount_deposited",
          "type": "uint256"
        },
        {
          "name": "time",
          "type": "uint256"
        }
      ],
      "payable": false,
      "stateMutability": "view",
      "type": "function"
    },
    {
      "constant": true,
      "inputs": [
        {
          "name": "",
          "type": "uint256"
        }
      ],
      "name": "stakers",
      "outputs": [
        {
          "name": "",
          "type": "address"
        }
      ],
      "payable": false,
      "stateMutability": "view",
      "type": "function"
    },
    {
      "inputs": [],
      "payable": false,
      "stateMutability": "nonpayable",
      "type": "constructor"
    },
    {
      "constant": false,
      "inputs": [],
      "name": "donate",
      "outputs": [],
      "payable": true,
      "stateMutability": "payable",
      "type": "function"
    },
    {
      "constant": false,
      "inputs": [],
      "name": "deposit",
      "outputs": [],
      "payable": true,
      "stateMutability": "payable",
      "type": "function"
    },
    {
      "constant": false,
      "inputs": [],
      "name": "pay_out",
      "outputs": [],
      "payable": false,
      "stateMutability": "nonpayable",
      "type": "function"
    },
    {
      "constant": true,
      "inputs": [
        {
          "name": "staker",
          "type": "address"
        }
      ],
      "name": "stakerExists",
      "outputs": [
        {
          "name": "",
          "type": "bool"
        }
      ],
      "payable": false,
      "stateMutability": "view",
      "type": "function"
    },
    {
      "constant": true,
      "inputs": [
        {
          "name": "staker",
          "type": "address"
        }
      ],
      "name": "get_pay_out",
      "outputs": [
        {
          "name": "",
          "type": "uint256"
        }
      ],
      "payable": false,
      "stateMutability": "view",
      "type": "function"
    },
    {
      "constant": true,
      "inputs": [],
      "name": "get_percentage",
      "outputs": [
        {
          "name": "",
          "type": "uint256"
        }
      ],
      "payable": false,
      "stateMutability": "view",
      "type": "function"
    },
    {
      "constant": true,
      "inputs": [],
      "name": "get_amount_staked",
      "outputs": [
        {
          "name": "",
          "type": "uint256"
        }
      ],
      "payable": false,
      "stateMutability": "view",
      "type": "function"
    },
    {
      "constant": true,
      "inputs": [],
      "name": "get_time",
      "outputs": [
        {
          "name": "",
          "type": "uint256"
        }
      ],
      "payable": false,
      "stateMutability": "view",
      "type": "function"
    }
  ],
  "bytecode": "0x608060405234801561001057600080fd5b5033600360006101000a81548173ffffffffffffffffffffffffffffffffffffffff021916908373ffffffffffffffffffffffffffffffffffffffff160217905550610898806100616000396000f3fe6080604052600436106100b9576000357c0100000000000000000000000000000000000000000000000000000000900463ffffffff168062fd1597146100be57806326fadb7c146100e9578063320f3b4014610100578063905e455b1461012b578063966a196114610156578063a84e432414610181578063a874aaa5146101ed578063cfa10ca014610252578063d0e30db0146102bb578063d2be8d60146102c5578063ed88c68e146102f0578063fd5e6dd1146102fa575b600080fd5b3480156100ca57600080fd5b506100d3610375565b6040518082815260200191505060405180910390f35b3480156100f557600080fd5b506100fe61037b565b005b34801561010c57600080fd5b50610115610475565b6040518082815260200191505060405180910390f35b34801561013757600080fd5b5061014061047b565b6040518082815260200191505060405180910390f35b34801561016257600080fd5b5061016b610485565b6040518082815260200191505060405180910390f35b34801561018d57600080fd5b506101d0600480360360208110156101a457600080fd5b81019080803573ffffffffffffffffffffffffffffffffffffffff16906020019092919050505061048d565b604051808381526020018281526020019250505060405180910390f35b3480156101f957600080fd5b5061023c6004803603602081101561021057600080fd5b81019080803573ffffffffffffffffffffffffffffffffffffffff1690602001909291905050506104b1565b6040518082815260200191505060405180910390f35b34801561025e57600080fd5b506102a16004803603602081101561027557600080fd5b81019080803573ffffffffffffffffffffffffffffffffffffffff1690602001909291905050506105ae565b604051808215151515815260200191505060405180910390f35b6102c3610652565b005b3480156102d157600080fd5b506102da610771565b6040518082815260200191505060405180910390f35b6102f861081c565b005b34801561030657600080fd5b506103336004803603602081101561031d57600080fd5b810190808035906020019092919050505061082e565b604051808273ffffffffffffffffffffffffffffffffffffffff1673ffffffffffffffffffffffffffffffffffffffff16815260200191505060405180910390f35b60015481565b60008060006004600081548110151561039057fe5b9060005260206000200160009054906101000a900473ffffffffffffffffffffffffffffffffffffffff169050600254620186a0600560008473ffffffffffffffffffffffffffffffffffffffff1673ffffffffffffffffffffffffffffffffffffffff168152602001908152602001600020600001540281151561041157fe5b049250620186a0836001540281151561042657fe5b0491508073ffffffffffffffffffffffffffffffffffffffff166108fc839081150290604051600060405180830381858888f1935050505015801561046f573d6000803e3d6000fd5b50505050565b60025481565b6000600154905090565b600042905090565b60056020528060005260406000206000915090508060000154908060010154905082565b6000806000806104c0856105ae565b1515610534576040517f08c379a00000000000000000000000000000000000000000000000000000000081526004018080602001828103825260128152602001807f4e6f742061207661696c64205374616b6572000000000000000000000000000081525060200191505060405180910390fd5b849050600254620186a0600560008473ffffffffffffffffffffffffffffffffffffffff1673ffffffffffffffffffffffffffffffffffffffff168152602001908152602001600020600001540281151561058b57fe5b049250620186a083600154028115156105a057fe5b049150819350505050919050565b600080600090505b600480549050811015610647578273ffffffffffffffffffffffffffffffffffffffff166004828154811015156105e957fe5b9060005260206000200160009054906101000a900473ffffffffffffffffffffffffffffffffffffffff1673ffffffffffffffffffffffffffffffffffffffff16141561063a57600191505061064d565b80806001019150506105b6565b50600090505b919050565b34600560003373ffffffffffffffffffffffffffffffffffffffff1673ffffffffffffffffffffffffffffffffffffffff1681526020019081526020016000206000016000828254019250508190555042600560003373ffffffffffffffffffffffffffffffffffffffff1673ffffffffffffffffffffffffffffffffffffffff16815260200190815260200160002060010181905550346001600082825401925050819055503460026000828254019250508190555060043390806001815401808255809150509060018203906000526020600020016000909192909190916101000a81548173ffffffffffffffffffffffffffffffffffffffff021916908373ffffffffffffffffffffffffffffffffffffffff16021790555050565b6000806002546103e8600560006004600081548110151561078e57fe5b9060005260206000200160009054906101000a900473ffffffffffffffffffffffffffffffffffffffff1673ffffffffffffffffffffffffffffffffffffffff1673ffffffffffffffffffffffffffffffffffffffff168152602001908152602001600020600001540281151561080157fe5b0490506103e8816001540281151561081557fe5b0491505090565b34600160008282540192505081905550565b60048181548110151561083d57fe5b906000526020600020016000915054906101000a900473ffffffffffffffffffffffffffffffffffffffff168156fea165627a7a72305820508d99f0253365d33f5302484ead0e802d1c8d2c788e0cec1eb10ef362a072910029",
  "source": "pragma solidity >=0.4.22 <0.8.0;\n\ncontract Staking {\n    \n    uint256 private transaction_fee;\n    uint256 public total_amount_staked;\n    uint256 public amount_staked_between_stakers;\n\n\n    address owner;\n    address payable[] public stakers;\n\n    struct Depositer {\n        uint amount_deposited;   \n        uint256 time;\n    }\n\n    mapping(address => Depositer) public DepositerInfo;\n\n    constructor() public {\n        owner = msg.sender;\n    }\n\n    function donate() public payable {\n        total_amount_staked += msg.value;\n    }\n\n\n    function deposit() public payable {\n\n        DepositerInfo[msg.sender].amount_deposited += msg.value;\n        DepositerInfo[msg.sender].time = block.timestamp;\n\n        total_amount_staked += msg.value;\n        amount_staked_between_stakers += msg.value;\n\n        stakers.push(msg.sender);\n    }\n\n    function pay_out() public {\n        uint bp;\n        uint amount_pay_out;\n        address payable depositerAddress;\n\n        depositerAddress = stakers[0];\n\n        bp = DepositerInfo[depositerAddress].amount_deposited * 100000 / amount_staked_between_stakers;\n        amount_pay_out = total_amount_staked * bp / 100000;\n\n        depositerAddress.transfer(amount_pay_out);\n    }\n\n    function stakerExists(address payable staker) public view returns(bool){\n        \n        for(uint256 i = 0; i < stakers.length; i++){\n            if(stakers[i] == staker) return true;\n        }\n\n        return false;\n    }\n\n\n    function get_pay_out(address payable staker) public view returns(uint) {\n        uint bp;\n        uint amount_pay_out;\n        address payable depositerAddress;\n\n        require(stakerExists(staker), \"Not a vaild Staker\" );\n\n        depositerAddress = staker;\n\n        bp = DepositerInfo[depositerAddress].amount_deposited * 100000 / amount_staked_between_stakers;\n        amount_pay_out = total_amount_staked * bp / 100000;\n\n        return(amount_pay_out);\n    }\n    \n\n    function get_percentage() public view returns(uint256) {\n        uint bp;\n\n        bp = DepositerInfo[stakers[0]].amount_deposited * 1000 / amount_staked_between_stakers;\n\n        return (total_amount_staked * bp / 1000);\n    }\n\n    function get_amount_staked() public view returns(uint256){\n        return total_amount_staked;\n    }\n\n    function get_time() public view returns(uint256) {\n        return block.timestamp;\n    }\n}",
  "sourcePath": "/home/kyle/myfiles/eth/SportsBettingContracts/contracts/Staking.sol",
  "compiler": {
    "name": "solc",
    "version": "0.5.0+commit.1d4f565a.Emscripten.clang"
  },
  "schemaVersion": "3.0.2",
  "updatedAt": "2020-09-18T14:23:21.250Z",
  "devdoc": {
    "methods": {}
  },
  "userdoc": {
    "methods": {}
  }
}