{
  "contractName": "Staking",
  "abi": [
    {
      "constant": true,
      "inputs": [],
      "name": "total_amount_staked",
      "outputs": [
        {
          "name": "",
          "type": "uint256"
        }
      ],
      "payable": false,
      "stateMutability": "view",
      "type": "function",
      "signature": "0x00fd1597"
    },
    {
      "constant": true,
      "inputs": [],
      "name": "amount_staked_between_stakers",
      "outputs": [
        {
          "name": "",
          "type": "uint256"
        }
      ],
      "payable": false,
      "stateMutability": "view",
      "type": "function",
      "signature": "0x320f3b40"
    },
    {
      "constant": true,
      "inputs": [
        {
          "name": "",
          "type": "address"
        }
      ],
      "name": "DepositerInfo",
      "outputs": [
        {
          "name": "amount_deposited",
          "type": "uint256"
        },
        {
          "name": "time",
          "type": "uint256"
        }
      ],
      "payable": false,
      "stateMutability": "view",
      "type": "function",
      "signature": "0xa84e4324"
    },
    {
      "constant": true,
      "inputs": [
        {
          "name": "",
          "type": "uint256"
        }
      ],
      "name": "stakers",
      "outputs": [
        {
          "name": "",
          "type": "address"
        }
      ],
      "payable": false,
      "stateMutability": "view",
      "type": "function",
      "signature": "0xfd5e6dd1"
    },
    {
      "inputs": [],
      "payable": false,
      "stateMutability": "nonpayable",
      "type": "constructor",
      "signature": "constructor"
    },
    {
      "constant": false,
      "inputs": [],
      "name": "donate",
      "outputs": [],
      "payable": true,
      "stateMutability": "payable",
      "type": "function",
      "signature": "0xed88c68e"
    },
    {
      "constant": false,
      "inputs": [],
      "name": "deposit",
      "outputs": [],
      "payable": true,
      "stateMutability": "payable",
      "type": "function",
      "signature": "0xd0e30db0"
    },
    {
      "constant": false,
      "inputs": [],
      "name": "pay_out",
      "outputs": [],
      "payable": false,
      "stateMutability": "nonpayable",
      "type": "function",
      "signature": "0x26fadb7c"
    },
    {
      "constant": true,
      "inputs": [
        {
          "name": "staker",
          "type": "address"
        }
      ],
      "name": "stakerExists",
      "outputs": [
        {
          "name": "",
          "type": "bool"
        }
      ],
      "payable": false,
      "stateMutability": "view",
      "type": "function",
      "signature": "0xcfa10ca0"
    },
    {
      "constant": true,
      "inputs": [
        {
          "name": "staker",
          "type": "address"
        }
      ],
      "name": "get_pay_out",
      "outputs": [
        {
          "name": "",
          "type": "uint256"
        }
      ],
      "payable": false,
      "stateMutability": "view",
      "type": "function",
      "signature": "0xa874aaa5"
    },
    {
      "constant": true,
      "inputs": [],
      "name": "get_percentage",
      "outputs": [
        {
          "name": "",
          "type": "uint256"
        }
      ],
      "payable": false,
      "stateMutability": "view",
      "type": "function",
      "signature": "0xd2be8d60"
    },
    {
      "constant": true,
      "inputs": [],
      "name": "get_amount_staked",
      "outputs": [
        {
          "name": "",
          "type": "uint256"
        }
      ],
      "payable": false,
      "stateMutability": "view",
      "type": "function",
      "signature": "0x905e455b"
    },
    {
      "constant": true,
      "inputs": [],
      "name": "get_time",
      "outputs": [
        {
          "name": "",
          "type": "uint256"
        }
      ],
      "payable": false,
      "stateMutability": "view",
      "type": "function",
      "signature": "0x966a1961"
    }
  ],
  "bytecode": "0x608060405234801561001057600080fd5b5033600260006101000a81548173ffffffffffffffffffffffffffffffffffffffff021916908373ffffffffffffffffffffffffffffffffffffffff160217905550610912806100616000396000f3fe6080604052600436106100b9576000357c0100000000000000000000000000000000000000000000000000000000900463ffffffff168062fd1597146100be57806326fadb7c146100e9578063320f3b4014610100578063905e455b1461012b578063966a196114610156578063a84e432414610181578063a874aaa5146101ed578063cfa10ca014610252578063d0e30db0146102bb578063d2be8d60146102c5578063ed88c68e146102f0578063fd5e6dd1146102fa575b600080fd5b3480156100ca57600080fd5b506100d3610375565b6040518082815260200191505060405180910390f35b3480156100f557600080fd5b506100fe61037b565b005b34801561010c57600080fd5b506101156104f2565b6040518082815260200191505060405180910390f35b34801561013757600080fd5b506101406104f8565b6040518082815260200191505060405180910390f35b34801561016257600080fd5b5061016b610501565b6040518082815260200191505060405180910390f35b34801561018d57600080fd5b506101d0600480360360208110156101a457600080fd5b81019080803573ffffffffffffffffffffffffffffffffffffffff169060200190929190505050610509565b604051808381526020018281526020019250505060405180910390f35b3480156101f957600080fd5b5061023c6004803603602081101561021057600080fd5b81019080803573ffffffffffffffffffffffffffffffffffffffff16906020019092919050505061052d565b6040518082815260200191505060405180910390f35b34801561025e57600080fd5b506102a16004803603602081101561027557600080fd5b81019080803573ffffffffffffffffffffffffffffffffffffffff16906020019092919050505061062a565b604051808215151515815260200191505060405180910390f35b6102c36106ce565b005b3480156102d157600080fd5b506102da6107ec565b6040518082815260200191505060405180910390f35b6102f8610897565b005b34801561030657600080fd5b506103336004803603602081101561031d57600080fd5b81019080803590602001909291905050506108a8565b604051808273ffffffffffffffffffffffffffffffffffffffff1673ffffffffffffffffffffffffffffffffffffffff16815260200191505060405180910390f35b60005481565b6000806000805b6003805490508110156104dd5760038181548110151561039e57fe5b9060005260206000200160009054906101000a900473ffffffffffffffffffffffffffffffffffffffff169150600154620186a0600460008573ffffffffffffffffffffffffffffffffffffffff1673ffffffffffffffffffffffffffffffffffffffff168152602001908152602001600020600001540281151561041f57fe5b049350620186a0846000540281151561043457fe5b0492508173ffffffffffffffffffffffffffffffffffffffff166108fc849081150290604051600060405180830381858888f1935050505015801561047d573d6000803e3d6000fd5b50600460008373ffffffffffffffffffffffffffffffffffffffff1673ffffffffffffffffffffffffffffffffffffffff168152602001908152602001600020600080820160009055600182016000905550508080600101915050610382565b50600080819055506000600181905550505050565b60015481565b60008054905090565b600042905090565b60046020528060005260406000206000915090508060000154908060010154905082565b60008060008061053c8561062a565b15156105b0576040517f08c379a00000000000000000000000000000000000000000000000000000000081526004018080602001828103825260128152602001807f4e6f742061207661696c64205374616b6572000000000000000000000000000081525060200191505060405180910390fd5b849050600154620186a0600460008473ffffffffffffffffffffffffffffffffffffffff1673ffffffffffffffffffffffffffffffffffffffff168152602001908152602001600020600001540281151561060757fe5b049250620186a0836000540281151561061c57fe5b049150819350505050919050565b600080600090505b6003805490508110156106c3578273ffffffffffffffffffffffffffffffffffffffff1660038281548110151561066557fe5b9060005260206000200160009054906101000a900473ffffffffffffffffffffffffffffffffffffffff1673ffffffffffffffffffffffffffffffffffffffff1614156106b65760019150506106c9565b8080600101915050610632565b50600090505b919050565b34600460003373ffffffffffffffffffffffffffffffffffffffff1673ffffffffffffffffffffffffffffffffffffffff1681526020019081526020016000206000016000828254019250508190555042600460003373ffffffffffffffffffffffffffffffffffffffff1673ffffffffffffffffffffffffffffffffffffffff168152602001908152602001600020600101819055503460008082825401925050819055503460016000828254019250508190555060033390806001815401808255809150509060018203906000526020600020016000909192909190916101000a81548173ffffffffffffffffffffffffffffffffffffffff021916908373ffffffffffffffffffffffffffffffffffffffff16021790555050565b6000806001546103e8600460006003600081548110151561080957fe5b9060005260206000200160009054906101000a900473ffffffffffffffffffffffffffffffffffffffff1673ffffffffffffffffffffffffffffffffffffffff1673ffffffffffffffffffffffffffffffffffffffff168152602001908152602001600020600001540281151561087c57fe5b0490506103e8816000540281151561089057fe5b0491505090565b346000808282540192505081905550565b6003818154811015156108b757fe5b906000526020600020016000915054906101000a900473ffffffffffffffffffffffffffffffffffffffff168156fea165627a7a72305820b49b58f3ef74ee018d5c802fbc597a6f8aa3d67460f9d955c1d2b3f05171d7580029",
  "source": "pragma solidity >=0.4.22 <0.8.0;\n\ncontract Staking {\n    \n    uint256 public total_amount_staked;\n    uint256 public amount_staked_between_stakers;\n\n    address owner;\n    address payable[] public stakers;\n\n    struct Depositer {\n        uint amount_deposited;   \n        uint256 time;\n    }\n\n    mapping(address => Depositer) public DepositerInfo;\n\n    constructor() public {\n        owner = msg.sender;\n    }\n\n    function donate() public payable {\n        total_amount_staked += msg.value;\n    }\n\n\n    function deposit() public payable {\n\n        DepositerInfo[msg.sender].amount_deposited += msg.value;\n        DepositerInfo[msg.sender].time = block.timestamp;\n\n        total_amount_staked += msg.value;\n        amount_staked_between_stakers += msg.value;\n\n        stakers.push(msg.sender);\n    }\n\n    function pay_out() public {\n        uint bp;\n        uint amount_pay_out;\n        address payable depositerAddress;\n\n        for (uint256 i; i < stakers.length; i++) \n        {\n            depositerAddress = stakers[i];\n\n            bp = DepositerInfo[depositerAddress].amount_deposited * 100000 / amount_staked_between_stakers;\n            amount_pay_out = total_amount_staked * bp / 100000;\n\n            depositerAddress.transfer(amount_pay_out);\n\n            delete DepositerInfo[depositerAddress];\n        } \n\n        total_amount_staked = 0;\n        amount_staked_between_stakers= 0;\n\n    }\n\n    function stakerExists(address payable staker) public view returns(bool){\n        for(uint256 i = 0; i < stakers.length; i++){\n            if(stakers[i] == staker) return true;\n        }\n        return false;\n    }\n\n\n    function get_pay_out(address payable staker) public view returns(uint) {\n        uint bp;\n        uint amount_pay_out;\n        address payable depositerAddress;\n\n        require(stakerExists(staker), \"Not a vaild Staker\" );\n\n        depositerAddress = staker;\n\n        bp = DepositerInfo[depositerAddress].amount_deposited * 100000 / amount_staked_between_stakers;\n        amount_pay_out = total_amount_staked * bp / 100000;\n\n        return(amount_pay_out);\n\n    }\n    \n\n    function get_percentage() public view returns(uint256) {\n        uint bp;\n\n        bp = DepositerInfo[stakers[0]].amount_deposited * 1000 / amount_staked_between_stakers;\n\n        return (total_amount_staked * bp / 1000);\n    }\n\n    function get_amount_staked() public view returns(uint256){\n        return total_amount_staked;\n    }\n\n    function get_time() public view returns(uint256) {\n        return block.timestamp;\n    }\n}",
  "sourcePath": "/home/kyle/myfiles/eth/SportsBettingContracts/contracts/Staking.sol",
  "compiler": {
    "name": "solc",
    "version": "0.5.0+commit.1d4f565a.Emscripten.clang"
  },
  "schemaVersion": "3.0.2",
  "updatedAt": "2020-09-18T20:00:38.949Z",
  "devdoc": {
    "methods": {}
  },
  "userdoc": {
    "methods": {}
  }
}