{
  "contractName": "Staking",
  "abi": [
    {
      "constant": true,
      "inputs": [],
      "name": "total_amount_staked",
      "outputs": [
        {
          "name": "",
          "type": "uint256"
        }
      ],
      "payable": false,
      "stateMutability": "view",
      "type": "function"
    },
    {
      "constant": true,
      "inputs": [],
      "name": "amount_staked_between_stakers",
      "outputs": [
        {
          "name": "",
          "type": "uint256"
        }
      ],
      "payable": false,
      "stateMutability": "view",
      "type": "function"
    },
    {
      "constant": true,
      "inputs": [
        {
          "name": "",
          "type": "address"
        }
      ],
      "name": "DepositerInfo",
      "outputs": [
        {
          "name": "amount_deposited",
          "type": "uint256"
        },
        {
          "name": "time",
          "type": "uint256"
        }
      ],
      "payable": false,
      "stateMutability": "view",
      "type": "function"
    },
    {
      "constant": true,
      "inputs": [
        {
          "name": "",
          "type": "uint256"
        }
      ],
      "name": "stakers",
      "outputs": [
        {
          "name": "",
          "type": "address"
        }
      ],
      "payable": false,
      "stateMutability": "view",
      "type": "function"
    },
    {
      "inputs": [],
      "payable": false,
      "stateMutability": "nonpayable",
      "type": "constructor"
    },
    {
      "constant": false,
      "inputs": [],
      "name": "donate",
      "outputs": [],
      "payable": true,
      "stateMutability": "payable",
      "type": "function"
    },
    {
      "constant": false,
      "inputs": [],
      "name": "deposit",
      "outputs": [],
      "payable": true,
      "stateMutability": "payable",
      "type": "function"
    },
    {
      "constant": false,
      "inputs": [],
      "name": "pay_out",
      "outputs": [],
      "payable": false,
      "stateMutability": "nonpayable",
      "type": "function"
    },
    {
      "constant": true,
      "inputs": [],
      "name": "get_percentage",
      "outputs": [
        {
          "name": "",
          "type": "uint256"
        }
      ],
      "payable": false,
      "stateMutability": "view",
      "type": "function"
    },
    {
      "constant": true,
      "inputs": [],
      "name": "getLiquidity",
      "outputs": [
        {
          "name": "",
          "type": "uint256"
        }
      ],
      "payable": false,
      "stateMutability": "view",
      "type": "function"
    },
    {
      "constant": true,
      "inputs": [],
      "name": "get_time",
      "outputs": [
        {
          "name": "",
          "type": "uint256"
        }
      ],
      "payable": false,
      "stateMutability": "view",
      "type": "function"
    }
  ],
  "bytecode": "0x608060405234801561001057600080fd5b5033600360006101000a81548173ffffffffffffffffffffffffffffffffffffffff021916908373ffffffffffffffffffffffffffffffffffffffff1602179055506105cc806100616000396000f3fe6080604052600436106100a3576000357c0100000000000000000000000000000000000000000000000000000000900463ffffffff168062fd1597146100a85780630910a510146100d357806326fadb7c146100fe578063320f3b4014610115578063966a196114610140578063a84e43241461016b578063d0e30db0146101d7578063d2be8d60146101e1578063ed88c68e1461020c578063fd5e6dd114610216575b600080fd5b3480156100b457600080fd5b506100bd610291565b6040518082815260200191505060405180910390f35b3480156100df57600080fd5b506100e8610297565b6040518082815260200191505060405180910390f35b34801561010a57600080fd5b506101136102a1565b005b34801561012157600080fd5b5061012a61039b565b6040518082815260200191505060405180910390f35b34801561014c57600080fd5b506101556103a1565b6040518082815260200191505060405180910390f35b34801561017757600080fd5b506101ba6004803603602081101561018e57600080fd5b81019080803573ffffffffffffffffffffffffffffffffffffffff1690602001909291905050506103a9565b604051808381526020018281526020019250505060405180910390f35b6101df6103cd565b005b3480156101ed57600080fd5b506101f66104a5565b6040518082815260200191505060405180910390f35b610214610550565b005b34801561022257600080fd5b5061024f6004803603602081101561023957600080fd5b8101908080359060200190929190505050610562565b604051808273ffffffffffffffffffffffffffffffffffffffff1673ffffffffffffffffffffffffffffffffffffffff16815260200191505060405180910390f35b60015481565b6000600154905090565b6000806000600460008154811015156102b657fe5b9060005260206000200160009054906101000a900473ffffffffffffffffffffffffffffffffffffffff169050600254620186a0600560008473ffffffffffffffffffffffffffffffffffffffff1673ffffffffffffffffffffffffffffffffffffffff168152602001908152602001600020600001540281151561033757fe5b049250620186a0836001540281151561034c57fe5b0491508073ffffffffffffffffffffffffffffffffffffffff166108fc839081150290604051600060405180830381858888f19350505050158015610395573d6000803e3d6000fd5b50505050565b60025481565b600042905090565b60056020528060005260406000206000915090508060000154908060010154905082565b34600560003373ffffffffffffffffffffffffffffffffffffffff1673ffffffffffffffffffffffffffffffffffffffff16815260200190815260200160002060000160008282540192505081905550346001600082825401925050819055503460026000828254019250508190555060043390806001815401808255809150509060018203906000526020600020016000909192909190916101000a81548173ffffffffffffffffffffffffffffffffffffffff021916908373ffffffffffffffffffffffffffffffffffffffff16021790555050565b6000806002546103e860056000600460008154811015156104c257fe5b9060005260206000200160009054906101000a900473ffffffffffffffffffffffffffffffffffffffff1673ffffffffffffffffffffffffffffffffffffffff1673ffffffffffffffffffffffffffffffffffffffff168152602001908152602001600020600001540281151561053557fe5b0490506103e8816001540281151561054957fe5b0491505090565b34600160008282540192505081905550565b60048181548110151561057157fe5b906000526020600020016000915054906101000a900473ffffffffffffffffffffffffffffffffffffffff168156fea165627a7a723058200d9ffc0c7f3e779a0ed86f7ec002451c970972a928afe325dc178eea46a3714f0029",
  "source": "pragma solidity >=0.4.22 <0.8.0;\n\ncontract Staking {\n    \n    uint256 private transaction_fee;\n    uint256 public total_amount_staked;\n    uint256 public amount_staked_between_stakers;\n\n\n    address owner;\n    address payable[] public stakers;\n\n    struct Depositer {\n        uint amount_deposited;   \n        uint time;\n    }\n\n    mapping(address => Depositer) public DepositerInfo;\n\n    constructor() public {\n        owner = msg.sender;\n    }\n\n    function donate() public payable {\n        total_amount_staked += msg.value;\n    }\n\n    function deposit() public payable {\n        DepositerInfo[msg.sender].amount_deposited += msg.value;\n        total_amount_staked += msg.value;\n        amount_staked_between_stakers += msg.value;\n\n        stakers.push(msg.sender);\n    }\n\n    function pay_out() public {\n        uint bp;\n        uint amount_pay_out;\n        address payable depositerAddress;\n\n        depositerAddress = stakers[0];\n\n        bp = DepositerInfo[depositerAddress].amount_deposited * 100000 / amount_staked_between_stakers;\n        amount_pay_out = total_amount_staked * bp / 100000;\n\n        depositerAddress.transfer(amount_pay_out);\n    }\n\n    function get_percentage() public view returns(uint256) {\n        uint bp;\n\n        bp = DepositerInfo[stakers[0]].amount_deposited * 1000 / amount_staked_between_stakers;\n\n        return (total_amount_staked * bp / 1000);\n    }\n\n    function getLiquidity() public view returns(uint256){\n        return total_amount_staked;\n    }\n\n    function get_time() public view returns(uint256) {\n        return block.timestamp;\n    }\n}",
  "sourcePath": "/home/kyle/myfiles/eth/SportsBettingContracts/contracts/Staking.sol",
  "compiler": {
    "name": "solc",
    "version": "0.5.0+commit.1d4f565a.Emscripten.clang"
  },
  "schemaVersion": "3.0.2",
  "updatedAt": "2020-09-18T14:04:08.607Z",
  "devdoc": {
    "methods": {}
  },
  "userdoc": {
    "methods": {}
  }
}